{
  "contractName": "LoanTable",
  "abi": [
    {
      "inputs": [
        {
          "internalType": "address",
          "name": "",
          "type": "address"
        },
        {
          "internalType": "uint256",
          "name": "",
          "type": "uint256"
        }
      ],
      "name": "transactions",
      "outputs": [
        {
          "internalType": "uint256",
          "name": "id",
          "type": "uint256"
        },
        {
          "internalType": "string",
          "name": "username",
          "type": "string"
        },
        {
          "internalType": "uint256",
          "name": "monthlyamount",
          "type": "uint256"
        },
        {
          "internalType": "string",
          "name": "method",
          "type": "string"
        },
        {
          "internalType": "string",
          "name": "transaction_date",
          "type": "string"
        },
        {
          "internalType": "string",
          "name": "status",
          "type": "string"
        },
        {
          "internalType": "string",
          "name": "upi_id",
          "type": "string"
        },
        {
          "internalType": "string",
          "name": "card_number",
          "type": "string"
        },
        {
          "internalType": "string",
          "name": "wallet_name",
          "type": "string"
        },
        {
          "internalType": "string",
          "name": "wallet_number",
          "type": "string"
        }
      ],
      "stateMutability": "view",
      "type": "function",
      "constant": true
    },
    {
      "inputs": [
        {
          "internalType": "uint256",
          "name": "id",
          "type": "uint256"
        },
        {
          "internalType": "string",
          "name": "status",
          "type": "string"
        }
      ],
      "name": "update_status",
      "outputs": [],
      "stateMutability": "nonpayable",
      "type": "function"
    },
    {
      "inputs": [
        {
          "internalType": "string",
          "name": "username",
          "type": "string"
        },
        {
          "internalType": "uint256",
          "name": "monthlyamount",
          "type": "uint256"
        },
        {
          "internalType": "string",
          "name": "method",
          "type": "string"
        },
        {
          "internalType": "string",
          "name": "transaction_date",
          "type": "string"
        },
        {
          "internalType": "string",
          "name": "status",
          "type": "string"
        },
        {
          "internalType": "string",
          "name": "upi_id",
          "type": "string"
        },
        {
          "internalType": "string",
          "name": "card_number",
          "type": "string"
        },
        {
          "internalType": "string",
          "name": "wallet_name",
          "type": "string"
        },
        {
          "internalType": "string",
          "name": "wallet_number",
          "type": "string"
        }
      ],
      "name": "addTransaction",
      "outputs": [],
      "stateMutability": "nonpayable",
      "type": "function"
    },
    {
      "inputs": [],
      "name": "getTransactionData",
      "outputs": [
        {
          "components": [
            {
              "internalType": "uint256",
              "name": "id",
              "type": "uint256"
            },
            {
              "internalType": "string",
              "name": "username",
              "type": "string"
            },
            {
              "internalType": "uint256",
              "name": "monthlyamount",
              "type": "uint256"
            },
            {
              "internalType": "string",
              "name": "method",
              "type": "string"
            },
            {
              "internalType": "string",
              "name": "transaction_date",
              "type": "string"
            },
            {
              "internalType": "string",
              "name": "status",
              "type": "string"
            },
            {
              "internalType": "string",
              "name": "upi_id",
              "type": "string"
            },
            {
              "internalType": "string",
              "name": "card_number",
              "type": "string"
            },
            {
              "internalType": "string",
              "name": "wallet_name",
              "type": "string"
            },
            {
              "internalType": "string",
              "name": "wallet_number",
              "type": "string"
            }
          ],
          "internalType": "struct LoanTable.Transaction[]",
          "name": "",
          "type": "tuple[]"
        }
      ],
      "stateMutability": "view",
      "type": "function",
      "constant": true
    }
  ],
  "bytecode": "0x608060405234801561001057600080fd5b5061191b806100206000396000f3fe608060405234801561001057600080fd5b5060043610610069576000357c010000000000000000000000000000000000000000000000000000000090048063145381281461006e578063cea5b44e146100a7578063d7e8c393146100c3578063f922b53c146100e1575b600080fd5b61008860048036038101906100839190610e25565b6100fd565b60405161009e9a99989796959493929190610f04565b60405180910390f35b6100c160048036038101906100bc919061110d565b6105ae565b005b6100cb610775565b6040516100d891906114dd565b60405180910390f35b6100fb60048036038101906100f691906114ff565b610cb5565b005b6000602052816000526040600020818154811061011957600080fd5b90600052602060002090600a0201600091509150508060000154908060010180546101439061158a565b80601f016020809104026020016040519081016040528092919081815260200182805461016f9061158a565b80156101bc5780601f10610191576101008083540402835291602001916101bc565b820191906000526020600020905b81548152906001019060200180831161019f57829003601f168201915b5050505050908060020154908060030180546101d79061158a565b80601f01602080910402602001604051908101604052809291908181526020018280546102039061158a565b80156102505780601f1061022557610100808354040283529160200191610250565b820191906000526020600020905b81548152906001019060200180831161023357829003601f168201915b5050505050908060040180546102659061158a565b80601f01602080910402602001604051908101604052809291908181526020018280546102919061158a565b80156102de5780601f106102b3576101008083540402835291602001916102de565b820191906000526020600020905b8154815290600101906020018083116102c157829003601f168201915b5050505050908060050180546102f39061158a565b80601f016020809104026020016040519081016040528092919081815260200182805461031f9061158a565b801561036c5780601f106103415761010080835404028352916020019161036c565b820191906000526020600020905b81548152906001019060200180831161034f57829003601f168201915b5050505050908060060180546103819061158a565b80601f01602080910402602001604051908101604052809291908181526020018280546103ad9061158a565b80156103fa5780601f106103cf576101008083540402835291602001916103fa565b820191906000526020600020905b8154815290600101906020018083116103dd57829003601f168201915b50505050509080600701805461040f9061158a565b80601f016020809104026020016040519081016040528092919081815260200182805461043b9061158a565b80156104885780601f1061045d57610100808354040283529160200191610488565b820191906000526020600020905b81548152906001019060200180831161046b57829003601f168201915b50505050509080600801805461049d9061158a565b80601f01602080910402602001604051908101604052809291908181526020018280546104c99061158a565b80156105165780601f106104eb57610100808354040283529160200191610516565b820191906000526020600020905b8154815290600101906020018083116104f957829003601f168201915b50505050509080600901805461052b9061158a565b80601f01602080910402602001604051908101604052809291908181526020018280546105579061158a565b80156105a45780601f10610579576101008083540402835291602001916105a4565b820191906000526020600020905b81548152906001019060200180831161058757829003601f168201915b505050505090508a565b60008060003373ffffffffffffffffffffffffffffffffffffffff1673ffffffffffffffffffffffffffffffffffffffff1681526020019081526020016000208054905090506000803373ffffffffffffffffffffffffffffffffffffffff1673ffffffffffffffffffffffffffffffffffffffff1681526020019081526020016000206040518061014001604052808381526020018c81526020018b81526020018a81526020018981526020018881526020018781526020018681526020018581526020018481525090806001815401808255809150506001900390600052602060002090600a02016000909190919091506000820151816000015560208201518160010190816106c0919061176d565b506040820151816002015560608201518160030190816106e0919061176d565b5060808201518160040190816106f6919061176d565b5060a082015181600501908161070c919061176d565b5060c0820151816006019081610722919061176d565b5060e0820151816007019081610738919061176d565b5061010082015181600801908161074f919061176d565b50610120820151816009019081610766919061176d565b50505050505050505050505050565b60606000803373ffffffffffffffffffffffffffffffffffffffff1673ffffffffffffffffffffffffffffffffffffffff168152602001908152602001600020805480602002602001604051908101604052809291908181526020016000905b82821015610cac57838290600052602060002090600a020160405180610140016040529081600082015481526020016001820180546108139061158a565b80601f016020809104026020016040519081016040528092919081815260200182805461083f9061158a565b801561088c5780601f106108615761010080835404028352916020019161088c565b820191906000526020600020905b81548152906001019060200180831161086f57829003601f168201915b50505050508152602001600282015481526020016003820180546108af9061158a565b80601f01602080910402602001604051908101604052809291908181526020018280546108db9061158a565b80156109285780601f106108fd57610100808354040283529160200191610928565b820191906000526020600020905b81548152906001019060200180831161090b57829003601f168201915b505050505081526020016004820180546109419061158a565b80601f016020809104026020016040519081016040528092919081815260200182805461096d9061158a565b80156109ba5780601f1061098f576101008083540402835291602001916109ba565b820191906000526020600020905b81548152906001019060200180831161099d57829003601f168201915b505050505081526020016005820180546109d39061158a565b80601f01602080910402602001604051908101604052809291908181526020018280546109ff9061158a565b8015610a4c5780601f10610a2157610100808354040283529160200191610a4c565b820191906000526020600020905b815481529060010190602001808311610a2f57829003601f168201915b50505050508152602001600682018054610a659061158a565b80601f0160208091040260200160405190810160405280929190818152602001828054610a919061158a565b8015610ade5780601f10610ab357610100808354040283529160200191610ade565b820191906000526020600020905b815481529060010190602001808311610ac157829003601f168201915b50505050508152602001600782018054610af79061158a565b80601f0160208091040260200160405190810160405280929190818152602001828054610b239061158a565b8015610b705780601f10610b4557610100808354040283529160200191610b70565b820191906000526020600020905b815481529060010190602001808311610b5357829003601f168201915b50505050508152602001600882018054610b899061158a565b80601f0160208091040260200160405190810160405280929190818152602001828054610bb59061158a565b8015610c025780601f10610bd757610100808354040283529160200191610c02565b820191906000526020600020905b815481529060010190602001808311610be557829003601f168201915b50505050508152602001600982018054610c1b9061158a565b80601f0160208091040260200160405190810160405280929190818152602001828054610c479061158a565b8015610c945780601f10610c6957610100808354040283529160200191610c94565b820191906000526020600020905b815481529060010190602001808311610c7757829003601f168201915b505050505081525050815260200190600101906107d5565b50505050905090565b60008060003373ffffffffffffffffffffffffffffffffffffffff1673ffffffffffffffffffffffffffffffffffffffff168152602001908152602001600020905060005b8180549050811015610d775783828281548110610d1a57610d1961183f565b5b90600052602060002090600a02016000015403610d645782828281548110610d4557610d4461183f565b5b90600052602060002090600a02016005019081610d62919061176d565b505b8080610d6f9061189d565b915050610cfa565b50505050565b6000604051905090565b600080fd5b600080fd5b600073ffffffffffffffffffffffffffffffffffffffff82169050919050565b6000610dbc82610d91565b9050919050565b610dcc81610db1565b8114610dd757600080fd5b50565b600081359050610de981610dc3565b92915050565b6000819050919050565b610e0281610def565b8114610e0d57600080fd5b50565b600081359050610e1f81610df9565b92915050565b60008060408385031215610e3c57610e3b610d87565b5b6000610e4a85828601610dda565b9250506020610e5b85828601610e10565b9150509250929050565b610e6e81610def565b82525050565b600081519050919050565b600082825260208201905092915050565b60005b83811015610eae578082015181840152602081019050610e93565b60008484015250505050565b6000601f19601f8301169050919050565b6000610ed682610e74565b610ee08185610e7f565b9350610ef0818560208601610e90565b610ef981610eba565b840191505092915050565b600061014082019050610f1a600083018d610e65565b8181036020830152610f2c818c610ecb565b9050610f3b604083018b610e65565b8181036060830152610f4d818a610ecb565b90508181036080830152610f618189610ecb565b905081810360a0830152610f758188610ecb565b905081810360c0830152610f898187610ecb565b905081810360e0830152610f9d8186610ecb565b9050818103610100830152610fb28185610ecb565b9050818103610120830152610fc78184610ecb565b90509b9a5050505050505050505050565b600080fd5b600080fd5b7f4e487b7100000000000000000000000000000000000000000000000000000000600052604160045260246000fd5b61101a82610eba565b810181811067ffffffffffffffff8211171561103957611038610fe2565b5b80604052505050565b600061104c610d7d565b90506110588282611011565b919050565b600067ffffffffffffffff82111561107857611077610fe2565b5b61108182610eba565b9050602081019050919050565b82818337600083830152505050565b60006110b06110ab8461105d565b611042565b9050828152602081018484840111156110cc576110cb610fdd565b5b6110d784828561108e565b509392505050565b600082601f8301126110f4576110f3610fd8565b5b813561110484826020860161109d565b91505092915050565b60008060008060008060008060006101208a8c0312156111305761112f610d87565b5b60008a013567ffffffffffffffff81111561114e5761114d610d8c565b5b61115a8c828d016110df565b995050602061116b8c828d01610e10565b98505060408a013567ffffffffffffffff81111561118c5761118b610d8c565b5b6111988c828d016110df565b97505060608a013567ffffffffffffffff8111156111b9576111b8610d8c565b5b6111c58c828d016110df565b96505060808a013567ffffffffffffffff8111156111e6576111e5610d8c565b5b6111f28c828d016110df565b95505060a08a013567ffffffffffffffff81111561121357611212610d8c565b5b61121f8c828d016110df565b94505060c08a013567ffffffffffffffff8111156112405761123f610d8c565b5b61124c8c828d016110df565b93505060e08a013567ffffffffffffffff81111561126d5761126c610d8c565b5b6112798c828d016110df565b9250506101008a013567ffffffffffffffff81111561129b5761129a610d8c565b5b6112a78c828d016110df565b9150509295985092959850929598565b600081519050919050565b600082825260208201905092915050565b6000819050602082019050919050565b6112ec81610def565b82525050565b600082825260208201905092915050565b600061130e82610e74565b61131881856112f2565b9350611328818560208601610e90565b61133181610eba565b840191505092915050565b60006101408301600083015161135560008601826112e3565b506020830151848203602086015261136d8282611303565b915050604083015161138260408601826112e3565b506060830151848203606086015261139a8282611303565b915050608083015184820360808601526113b48282611303565b91505060a083015184820360a08601526113ce8282611303565b91505060c083015184820360c08601526113e88282611303565b91505060e083015184820360e08601526114028282611303565b91505061010083015184820361010086015261141e8282611303565b91505061012083015184820361012086015261143a8282611303565b9150508091505092915050565b6000611453838361133c565b905092915050565b6000602082019050919050565b6000611473826112b7565b61147d81856112c2565b93508360208202850161148f856112d3565b8060005b858110156114cb57848403895281516114ac8582611447565b94506114b78361145b565b925060208a01995050600181019050611493565b50829750879550505050505092915050565b600060208201905081810360008301526114f78184611468565b905092915050565b6000806040838503121561151657611515610d87565b5b600061152485828601610e10565b925050602083013567ffffffffffffffff81111561154557611544610d8c565b5b611551858286016110df565b9150509250929050565b7f4e487b7100000000000000000000000000000000000000000000000000000000600052602260045260246000fd5b600060028204905060018216806115a257607f821691505b6020821081036115b5576115b461155b565b5b50919050565b60008190508160005260206000209050919050565b60006020601f8301049050919050565b60008160020a8302905092915050565b6000600883026116207fffffffffffffffffffffffffffffffffffffffffffffffffffffffffffffffff826115e0565b61162a86836115e0565b95508019841693508086168417925050509392505050565b6000819050919050565b600061166761166261165d84610def565b611642565b610def565b9050919050565b6000819050919050565b6116818361164c565b61169561168d8261166e565b8484546115f0565b825550505050565b600090565b6116aa61169d565b6116b5818484611678565b505050565b5b818110156116d9576116ce6000826116a2565b6001810190506116bb565b5050565b601f82111561171e576116ef816115bb565b6116f8846115d0565b81016020851015611707578190505b61171b611713856115d0565b8301826116ba565b50505b505050565b60008160020a8304905092915050565b600061174460001984600802611723565b1980831691505092915050565b600061175d8383611733565b9150826002028217905092915050565b61177682610e74565b67ffffffffffffffff81111561178f5761178e610fe2565b5b611799825461158a565b6117a48282856116dd565b600060209050601f8311600181146117d757600084156117c5578287015190505b6117cf8582611751565b865550611837565b601f1984166117e5866115bb565b60005b8281101561180d578489015182556001820191506020850194506020810190506117e8565b8683101561182a5784890151611826601f891682611733565b8355505b6001600288020188555050505b505050505050565b7f4e487b7100000000000000000000000000000000000000000000000000000000600052603260045260246000fd5b7f4e487b7100000000000000000000000000000000000000000000000000000000600052601160045260246000fd5b60006118a882610def565b91507fffffffffffffffffffffffffffffffffffffffffffffffffffffffffffffffff82036118da576118d961186e565b5b60018201905091905056fea2646970667358221220f4501ecbed02ea5a2a80c90a514692b7f6c66a822b816cad560fd47baf17a59464736f6c63430008150033",
  "immutableReferences": {},
  "source": "// SPDX-License-Identifier: MIT\r\npragma solidity ^0.8.21;\r\n\r\ncontract LoanTable {\r\n    struct Transaction {\r\n        uint256 id;\r\n        string username;\r\n        uint256 monthlyamount;\r\n        string method;\r\n        string transaction_date;\r\n        string status;\r\n        string upi_id;\r\n        string card_number;\r\n        string wallet_name;\r\n        string wallet_number;\r\n    }\r\n\r\n    mapping(address => Transaction[]) public transactions;\r\n\r\n\r\n    function update_status(uint256 id, string memory status) public {\r\n        Transaction[] storage tr = transactions[msg.sender];\r\n        for (uint256 i = 0; i < tr.length; i++) {\r\n            if (tr[i].id == id) {\r\n                tr[i].status = status;\r\n            }\r\n        }\r\n    }\r\n    function addTransaction(\r\n        string memory username,\r\n        uint256 monthlyamount,\r\n        string memory method,\r\n        string memory transaction_date,\r\n        string memory status,\r\n        string memory upi_id,\r\n        string memory card_number,\r\n        string memory wallet_name,\r\n        string memory wallet_number\r\n    ) public {\r\n        uint256 id = transactions[msg.sender].length;\r\n        transactions[msg.sender].push(\r\n            Transaction(\r\n                id,\r\n                username,\r\n                monthlyamount,\r\n                method,\r\n                transaction_date,\r\n                status,\r\n                upi_id,\r\n                card_number,\r\n                wallet_name,\r\n                wallet_number\r\n            )\r\n        );\r\n    }\r\n\r\n    function getTransactionData() public view returns (Transaction[] memory) {\r\n    return transactions[msg.sender];\r\n    }\r\n\r\n}\r\n",
  "sourcePath": "C:\\Users\\hemal\\OneDrive\\Desktop\\WED WORK\\Loan\\blocks\\contracts\\Loan.sol",
  "compiler": {
    "name": "solc",
    "version": "0.8.21+commit.d9974bed.Emscripten.clang"
  },
  "schemaVersion": "3.4.16",
  "updatedAt": "2026-02-11T16:53:39.588Z",
  "networkType": "ethereum",
  "devdoc": {
    "kind": "dev",
    "methods": {},
    "version": 1
  },
  "userdoc": {
    "kind": "user",
    "methods": {},
    "version": 1
  }
}